{
    "_format": "hh-sol-artifact-1",
    "contractName": "Transaction",
    "sourceName": "contracts/Transaction.sol",
    "abi": [
        {
            "anonymous": false,
            "inputs": [
                {
                    "indexed": false,
                    "internalType": "address",
                    "name": "from",
                    "type": "address"
                },
                {
                    "indexed": false,
                    "internalType": "address",
                    "name": "receiver",
                    "type": "address"
                },
                {
                    "indexed": false,
                    "internalType": "uint256",
                    "name": "amount",
                    "type": "uint256"
                },
                {
                    "indexed": false,
                    "internalType": "string",
                    "name": "message",
                    "type": "string"
                },
                {
                    "indexed": false,
                    "internalType": "uint256",
                    "name": "timestamp",
                    "type": "uint256"
                },
                {
                    "indexed": false,
                    "internalType": "string",
                    "name": "account",
                    "type": "string"
                },
                {
                    "indexed": false,
                    "internalType": "string",
                    "name": "keyword",
                    "type": "string"
                }
            ],
            "name": "Transfer",
            "type": "event"
        },
        {
            "inputs": [],
            "name": "getAllTransactions",
            "outputs": [
                {
                    "components": [
                        {
                            "internalType": "address",
                            "name": "sender",
                            "type": "address"
                        },
                        {
                            "internalType": "address",
                            "name": "receiver",
                            "type": "address"
                        },
                        {
                            "internalType": "uint256",
                            "name": "amount",
                            "type": "uint256"
                        },
                        {
                            "internalType": "string",
                            "name": "message",
                            "type": "string"
                        },
                        {
                            "internalType": "uint256",
                            "name": "timestamp",
                            "type": "uint256"
                        },
                        {
                            "internalType": "string",
                            "name": "account",
                            "type": "string"
                        },
                        {
                            "internalType": "string",
                            "name": "keyword",
                            "type": "string"
                        }
                    ],
                    "internalType": "struct Transaction.TransferStruct[]",
                    "name": "",
                    "type": "tuple[]"
                }
            ],
            "stateMutability": "view",
            "type": "function"
        },
        {
            "inputs": [],
            "name": "getTransactionCount",
            "outputs": [
                {
                    "internalType": "uint256",
                    "name": "",
                    "type": "uint256"
                }
            ],
            "stateMutability": "view",
            "type": "function"
        },
        {
            "inputs": [
                {
                    "internalType": "address payable",
                    "name": "receiver",
                    "type": "address"
                },
                {
                    "internalType": "uint256",
                    "name": "amount",
                    "type": "uint256"
                },
                {
                    "internalType": "string",
                    "name": "message",
                    "type": "string"
                },
                {
                    "internalType": "string",
                    "name": "account",
                    "type": "string"
                },
                {
                    "internalType": "string",
                    "name": "keyword",
                    "type": "string"
                }
            ],
            "name": "transfer",
            "outputs": [],
            "stateMutability": "nonpayable",
            "type": "function"
        }
    ],
    "bytecode": "0x608060405234801561001057600080fd5b50610f1c806100206000396000f3fe608060405234801561001057600080fd5b50600436106100415760003560e01c806327506f53146100465780632e7700f014610064578063754091e714610082575b600080fd5b61004e61009e565b60405161005b91906107a5565b60405180910390f35b61006c610373565b60405161007991906107d6565b60405180910390f35b61009c600480360381019061009791906109a4565b61037c565b005b60606001805480602002602001604051908101604052809291908181526020016000905b8282101561036a57838290600052602060002090600702016040518060e00160405290816000820160009054906101000a900473ffffffffffffffffffffffffffffffffffffffff1673ffffffffffffffffffffffffffffffffffffffff1673ffffffffffffffffffffffffffffffffffffffff1681526020016001820160009054906101000a900473ffffffffffffffffffffffffffffffffffffffff1673ffffffffffffffffffffffffffffffffffffffff1673ffffffffffffffffffffffffffffffffffffffff168152602001600282015481526020016003820180546101ab90610aa2565b80601f01602080910402602001604051908101604052809291908181526020018280546101d790610aa2565b80156102245780601f106101f957610100808354040283529160200191610224565b820191906000526020600020905b81548152906001019060200180831161020757829003601f168201915b505050505081526020016004820154815260200160058201805461024790610aa2565b80601f016020809104026020016040519081016040528092919081815260200182805461027390610aa2565b80156102c05780601f10610295576101008083540402835291602001916102c0565b820191906000526020600020905b8154815290600101906020018083116102a357829003601f168201915b505050505081526020016006820180546102d990610aa2565b80601f016020809104026020016040519081016040528092919081815260200182805461030590610aa2565b80156103525780601f1061032757610100808354040283529160200191610352565b820191906000526020600020905b81548152906001019060200180831161033557829003601f168201915b505050505081525050815260200190600101906100c2565b50505050905090565b60008054905090565b600160008082825461038e9190610b02565b9250508190555060016040518060e001604052803373ffffffffffffffffffffffffffffffffffffffff1681526020018773ffffffffffffffffffffffffffffffffffffffff16815260200186815260200185815260200142815260200184815260200183815250908060018154018082558091505060019003906000526020600020906007020160009091909190915060008201518160000160006101000a81548173ffffffffffffffffffffffffffffffffffffffff021916908373ffffffffffffffffffffffffffffffffffffffff16021790555060208201518160010160006101000a81548173ffffffffffffffffffffffffffffffffffffffff021916908373ffffffffffffffffffffffffffffffffffffffff1602179055506040820151816002015560608201518160030190816104cc9190610ce2565b506080820151816004015560a08201518160050190816104ec9190610ce2565b5060c08201518160060190816105029190610ce2565b5050507f21ec5b3f3e6c597e1a0d1650e5545618667a89bf7d7341cc53e38673d3dede32338686864287876040516105409796959493929190610e62565b60405180910390a15050505050565b600081519050919050565b600082825260208201905092915050565b6000819050602082019050919050565b600073ffffffffffffffffffffffffffffffffffffffff82169050919050565b60006105a68261057b565b9050919050565b6105b68161059b565b82525050565b6000819050919050565b6105cf816105bc565b82525050565b600081519050919050565b600082825260208201905092915050565b60005b8381101561060f5780820151818401526020810190506105f4565b60008484015250505050565b6000601f19601f8301169050919050565b6000610637826105d5565b61064181856105e0565b93506106518185602086016105f1565b61065a8161061b565b840191505092915050565b600060e08301600083015161067d60008601826105ad565b50602083015161069060208601826105ad565b5060408301516106a360408601826105c6565b50606083015184820360608601526106bb828261062c565b91505060808301516106d060808601826105c6565b5060a083015184820360a08601526106e8828261062c565b91505060c083015184820360c0860152610702828261062c565b9150508091505092915050565b600061071b8383610665565b905092915050565b6000602082019050919050565b600061073b8261054f565b610745818561055a565b9350836020820285016107578561056b565b8060005b858110156107935784840389528151610774858261070f565b945061077f83610723565b925060208a0199505060018101905061075b565b50829750879550505050505092915050565b600060208201905081810360008301526107bf8184610730565b905092915050565b6107d0816105bc565b82525050565b60006020820190506107eb60008301846107c7565b92915050565b6000604051905090565b600080fd5b600080fd5b60006108108261057b565b9050919050565b61082081610805565b811461082b57600080fd5b50565b60008135905061083d81610817565b92915050565b61084c816105bc565b811461085757600080fd5b50565b60008135905061086981610843565b92915050565b600080fd5b600080fd5b7f4e487b7100000000000000000000000000000000000000000000000000000000600052604160045260246000fd5b6108b18261061b565b810181811067ffffffffffffffff821117156108d0576108cf610879565b5b80604052505050565b60006108e36107f1565b90506108ef82826108a8565b919050565b600067ffffffffffffffff82111561090f5761090e610879565b5b6109188261061b565b9050602081019050919050565b82818337600083830152505050565b6000610947610942846108f4565b6108d9565b90508281526020810184848401111561096357610962610874565b5b61096e848285610925565b509392505050565b600082601f83011261098b5761098a61086f565b5b813561099b848260208601610934565b91505092915050565b600080600080600060a086880312156109c0576109bf6107fb565b5b60006109ce8882890161082e565b95505060206109df8882890161085a565b945050604086013567ffffffffffffffff811115610a00576109ff610800565b5b610a0c88828901610976565b935050606086013567ffffffffffffffff811115610a2d57610a2c610800565b5b610a3988828901610976565b925050608086013567ffffffffffffffff811115610a5a57610a59610800565b5b610a6688828901610976565b9150509295509295909350565b7f4e487b7100000000000000000000000000000000000000000000000000000000600052602260045260246000fd5b60006002820490506001821680610aba57607f821691505b602082108103610acd57610acc610a73565b5b50919050565b7f4e487b7100000000000000000000000000000000000000000000000000000000600052601160045260246000fd5b6000610b0d826105bc565b9150610b18836105bc565b9250828201905080821115610b3057610b2f610ad3565b5b92915050565b60008190508160005260206000209050919050565b60006020601f8301049050919050565b600082821b905092915050565b600060088302610b987fffffffffffffffffffffffffffffffffffffffffffffffffffffffffffffffff82610b5b565b610ba28683610b5b565b95508019841693508086168417925050509392505050565b6000819050919050565b6000610bdf610bda610bd5846105bc565b610bba565b6105bc565b9050919050565b6000819050919050565b610bf983610bc4565b610c0d610c0582610be6565b848454610b68565b825550505050565b600090565b610c22610c15565b610c2d818484610bf0565b505050565b5b81811015610c5157610c46600082610c1a565b600181019050610c33565b5050565b601f821115610c9657610c6781610b36565b610c7084610b4b565b81016020851015610c7f578190505b610c93610c8b85610b4b565b830182610c32565b50505b505050565b600082821c905092915050565b6000610cb960001984600802610c9b565b1980831691505092915050565b6000610cd28383610ca8565b9150826002028217905092915050565b610ceb826105d5565b67ffffffffffffffff811115610d0457610d03610879565b5b610d0e8254610aa2565b610d19828285610c55565b600060209050601f831160018114610d4c5760008415610d3a578287015190505b610d448582610cc6565b865550610dac565b601f198416610d5a86610b36565b60005b82811015610d8257848901518255600182019150602085019450602081019050610d5d565b86831015610d9f5784890151610d9b601f891682610ca8565b8355505b6001600288020188555050505b505050505050565b610dbd8161059b565b82525050565b6000610dde610dd9610dd48461057b565b610bba565b61057b565b9050919050565b6000610df082610dc3565b9050919050565b6000610e0282610de5565b9050919050565b610e1281610df7565b82525050565b600082825260208201905092915050565b6000610e34826105d5565b610e3e8185610e18565b9350610e4e8185602086016105f1565b610e578161061b565b840191505092915050565b600060e082019050610e77600083018a610db4565b610e846020830189610e09565b610e9160408301886107c7565b8181036060830152610ea38187610e29565b9050610eb260808301866107c7565b81810360a0830152610ec48185610e29565b905081810360c0830152610ed88184610e29565b90509897505050505050505056fea2646970667358221220f58601d3405d8068f382c6ee900e61cb72af741b104812eac2b6c9feb744334964736f6c63430008120033",
    "linkReferences": {},
    "deployedLinkReferences": {}
}